{
  "contractName": "ERC20Coin",
  "abi": [
    {
      "inputs": [],
      "stateMutability": "nonpayable",
      "type": "constructor"
    },
    {
      "anonymous": false,
      "inputs": [
        {
          "indexed": true,
          "internalType": "address",
          "name": "owner",
          "type": "address"
        },
        {
          "indexed": true,
          "internalType": "address",
          "name": "spender",
          "type": "address"
        },
        {
          "indexed": false,
          "internalType": "uint256",
          "name": "value",
          "type": "uint256"
        }
      ],
      "name": "Approval",
      "type": "event"
    },
    {
      "anonymous": false,
      "inputs": [
        {
          "indexed": true,
          "internalType": "address",
          "name": "from",
          "type": "address"
        },
        {
          "indexed": true,
          "internalType": "address",
          "name": "to",
          "type": "address"
        },
        {
          "indexed": false,
          "internalType": "uint256",
          "name": "value",
          "type": "uint256"
        }
      ],
      "name": "Transfer",
      "type": "event"
    },
    {
      "inputs": [
        {
          "internalType": "address",
          "name": "owner",
          "type": "address"
        },
        {
          "internalType": "address",
          "name": "spender",
          "type": "address"
        }
      ],
      "name": "allowance",
      "outputs": [
        {
          "internalType": "uint256",
          "name": "",
          "type": "uint256"
        }
      ],
      "stateMutability": "view",
      "type": "function",
      "constant": true
    },
    {
      "inputs": [
        {
          "internalType": "address",
          "name": "spender",
          "type": "address"
        },
        {
          "internalType": "uint256",
          "name": "amount",
          "type": "uint256"
        }
      ],
      "name": "approve",
      "outputs": [
        {
          "internalType": "bool",
          "name": "",
          "type": "bool"
        }
      ],
      "stateMutability": "nonpayable",
      "type": "function"
    },
    {
      "inputs": [
        {
          "internalType": "address",
          "name": "account",
          "type": "address"
        }
      ],
      "name": "balanceOf",
      "outputs": [
        {
          "internalType": "uint256",
          "name": "",
          "type": "uint256"
        }
      ],
      "stateMutability": "view",
      "type": "function",
      "constant": true
    },
    {
      "inputs": [],
      "name": "count",
      "outputs": [
        {
          "internalType": "uint256",
          "name": "",
          "type": "uint256"
        }
      ],
      "stateMutability": "view",
      "type": "function",
      "constant": true
    },
    {
      "inputs": [],
      "name": "decimals",
      "outputs": [
        {
          "internalType": "uint8",
          "name": "",
          "type": "uint8"
        }
      ],
      "stateMutability": "view",
      "type": "function",
      "constant": true
    },
    {
      "inputs": [
        {
          "internalType": "address",
          "name": "spender",
          "type": "address"
        },
        {
          "internalType": "uint256",
          "name": "subtractedValue",
          "type": "uint256"
        }
      ],
      "name": "decreaseAllowance",
      "outputs": [
        {
          "internalType": "bool",
          "name": "",
          "type": "bool"
        }
      ],
      "stateMutability": "nonpayable",
      "type": "function"
    },
    {
      "inputs": [
        {
          "internalType": "address",
          "name": "spender",
          "type": "address"
        },
        {
          "internalType": "uint256",
          "name": "addedValue",
          "type": "uint256"
        }
      ],
      "name": "increaseAllowance",
      "outputs": [
        {
          "internalType": "bool",
          "name": "",
          "type": "bool"
        }
      ],
      "stateMutability": "nonpayable",
      "type": "function"
    },
    {
      "inputs": [],
      "name": "name",
      "outputs": [
        {
          "internalType": "string",
          "name": "",
          "type": "string"
        }
      ],
      "stateMutability": "view",
      "type": "function",
      "constant": true
    },
    {
      "inputs": [],
      "name": "setMessage",
      "outputs": [
        {
          "internalType": "string",
          "name": "",
          "type": "string"
        }
      ],
      "stateMutability": "view",
      "type": "function",
      "constant": true
    },
    {
      "inputs": [],
      "name": "symbol",
      "outputs": [
        {
          "internalType": "string",
          "name": "",
          "type": "string"
        }
      ],
      "stateMutability": "view",
      "type": "function",
      "constant": true
    },
    {
      "inputs": [],
      "name": "totalSupply",
      "outputs": [
        {
          "internalType": "uint256",
          "name": "",
          "type": "uint256"
        }
      ],
      "stateMutability": "view",
      "type": "function",
      "constant": true
    },
    {
      "inputs": [
        {
          "internalType": "address",
          "name": "to",
          "type": "address"
        },
        {
          "internalType": "uint256",
          "name": "amount",
          "type": "uint256"
        }
      ],
      "name": "transfer",
      "outputs": [
        {
          "internalType": "bool",
          "name": "",
          "type": "bool"
        }
      ],
      "stateMutability": "nonpayable",
      "type": "function"
    },
    {
      "inputs": [
        {
          "internalType": "address",
          "name": "from",
          "type": "address"
        },
        {
          "internalType": "address",
          "name": "to",
          "type": "address"
        },
        {
          "internalType": "uint256",
          "name": "amount",
          "type": "uint256"
        }
      ],
      "name": "transferFrom",
      "outputs": [
        {
          "internalType": "bool",
          "name": "",
          "type": "bool"
        }
      ],
      "stateMutability": "nonpayable",
      "type": "function"
    },
    {
      "inputs": [],
      "name": "Hello",
      "outputs": [
        {
          "internalType": "string",
          "name": "",
          "type": "string"
        }
      ],
      "stateMutability": "pure",
      "type": "function",
      "constant": true
    },
    {
      "inputs": [
        {
          "internalType": "string",
          "name": "str",
          "type": "string"
        }
      ],
      "name": "Greet",
      "outputs": [
        {
          "internalType": "string",
          "name": "",
          "type": "string"
        }
      ],
      "stateMutability": "pure",
      "type": "function",
      "constant": true
    },
    {
      "inputs": [
        {
          "internalType": "string",
          "name": "_setText",
          "type": "string"
        }
      ],
      "name": "setText",
      "outputs": [],
      "stateMutability": "nonpayable",
      "type": "function"
    },
    {
      "inputs": [],
      "name": "getText",
      "outputs": [
        {
          "internalType": "string",
          "name": "",
          "type": "string"
        }
      ],
      "stateMutability": "view",
      "type": "function",
      "constant": true
    },
    {
      "inputs": [],
      "name": "increment",
      "outputs": [],
      "stateMutability": "nonpayable",
      "type": "function"
    },
    {
      "inputs": [],
      "name": "getCount",
      "outputs": [
        {
          "internalType": "uint256",
          "name": "",
          "type": "uint256"
        }
      ],
      "stateMutability": "view",
      "type": "function",
      "constant": true
    },
    {
      "inputs": [],
      "name": "decrement",
      "outputs": [],
      "stateMutability": "nonpayable",
      "type": "function"
    }
  ],
  "bytecode": "0x60806040526040518060400160405280600e81526020017f48656c6c6f20536f6c69646974790000000000000000000000000000000000008152506005908051906020019062000051929190620002aa565b5060006006553480156200006457600080fd5b506040518060400160405280601281526020017f53636166666f6c642045544820546f6b656e00000000000000000000000000008152506040518060400160405280600381526020017f53455400000000000000000000000000000000000000000000000000000000008152508160039080519060200190620000e9929190620002aa565b50806004908051906020019062000102929190620002aa565b5050506200012133690bc3a4806cfeba2c00006200012760201b60201c565b62000506565b600073ffffffffffffffffffffffffffffffffffffffff168273ffffffffffffffffffffffffffffffffffffffff1614156200019a576040517f08c379a00000000000000000000000000000000000000000000000000000000081526004016200019190620003bb565b60405180910390fd5b620001ae60008383620002a060201b60201c565b8060026000828254620001c2919062000416565b92505081905550806000808473ffffffffffffffffffffffffffffffffffffffff1673ffffffffffffffffffffffffffffffffffffffff168152602001908152602001600020600082825462000219919062000416565b925050819055508173ffffffffffffffffffffffffffffffffffffffff16600073ffffffffffffffffffffffffffffffffffffffff167fddf252ad1be2c89b69c2b068fc378daa952ba7f163c4a11628f55a4df523b3ef8360405162000280919062000484565b60405180910390a36200029c60008383620002a560201b60201c565b5050565b505050565b505050565b828054620002b890620004d0565b90600052602060002090601f016020900481019282620002dc576000855562000328565b82601f10620002f757805160ff191683800117855562000328565b8280016001018555821562000328579182015b82811115620003275782518255916020019190600101906200030a565b5b5090506200033791906200033b565b5090565b5b80821115620003565760008160009055506001016200033c565b5090565b600082825260208201905092915050565b7f45524332303a206d696e7420746f20746865207a65726f206164647265737300600082015250565b6000620003a3601f836200035a565b9150620003b0826200036b565b602082019050919050565b60006020820190508181036000830152620003d68162000394565b9050919050565b6000819050919050565b7f4e487b7100000000000000000000000000000000000000000000000000000000600052601160045260246000fd5b60006200042382620003dd565b91506200043083620003dd565b9250827fffffffffffffffffffffffffffffffffffffffffffffffffffffffffffffffff03821115620004685762000467620003e7565b5b828201905092915050565b6200047e81620003dd565b82525050565b60006020820190506200049b600083018462000473565b92915050565b7f4e487b7100000000000000000000000000000000000000000000000000000000600052602260045260246000fd5b60006002820490506001821680620004e957607f821691505b602082108114156200050057620004ff620004a1565b5b50919050565b6118e880620005166000396000f3fe608060405234801561001057600080fd5b506004361061012c5760003560e01c806395d89b41116100ad578063d09de08a11610071578063d09de08a14610349578063dd62ed3e14610353578063e00fe2eb14610383578063e90847f4146103a1578063efdeaaf5146103bf5761012c565b806395d89b411461028f578063a457c2d7146102ad578063a87d942c146102dd578063a9059cbb146102fb578063bcdfe0d51461032b5761012c565b80632baeceb7116100f45780632baeceb7146101eb578063313ce567146101f557806339509351146102135780635d3a1f9d1461024357806370a082311461025f5761012c565b806306661abd1461013157806306fdde031461014f578063095ea7b31461016d57806318160ddd1461019d57806323b872dd146101bb575b600080fd5b6101396103ef565b6040516101469190610f6b565b60405180910390f35b6101576103f5565b604051610164919061101f565b60405180910390f35b610187600480360381019061018291906110df565b610487565b604051610194919061113a565b60405180910390f35b6101a56104aa565b6040516101b29190610f6b565b60405180910390f35b6101d560048036038101906101d09190611155565b6104b4565b6040516101e2919061113a565b60405180910390f35b6101f36104e3565b005b6101fd6104fd565b60405161020a91906111c4565b60405180910390f35b61022d600480360381019061022891906110df565b610506565b60405161023a919061113a565b60405180910390f35b61025d60048036038101906102589190611314565b6105b0565b005b6102796004803603810190610274919061135d565b6105ca565b6040516102869190610f6b565b60405180910390f35b610297610612565b6040516102a4919061101f565b60405180910390f35b6102c760048036038101906102c291906110df565b6106a4565b6040516102d4919061113a565b60405180910390f35b6102e561078e565b6040516102f29190610f6b565b60405180910390f35b610315600480360381019061031091906110df565b610798565b604051610322919061113a565b60405180910390f35b6103336107bb565b604051610340919061101f565b60405180910390f35b6103516107f8565b005b61036d6004803603810190610368919061138a565b610814565b60405161037a9190610f6b565b60405180910390f35b61038b61089b565b604051610398919061101f565b60405180910390f35b6103a961092d565b6040516103b6919061101f565b60405180910390f35b6103d960048036038101906103d49190611314565b6109bb565b6040516103e6919061101f565b60405180910390f35b60065481565b606060038054610404906113f9565b80601f0160208091040260200160405190810160405280929190818152602001828054610430906113f9565b801561047d5780601f106104525761010080835404028352916020019161047d565b820191906000526020600020905b81548152906001019060200180831161046057829003601f168201915b5050505050905090565b6000806104926109c5565b905061049f8185856109cd565b600191505092915050565b6000600254905090565b6000806104bf6109c5565b90506104cc858285610b98565b6104d7858585610c24565b60019150509392505050565b600660008154809291906104f69061145a565b9190505550565b60006012905090565b6000806105116109c5565b90506105a5818585600160008673ffffffffffffffffffffffffffffffffffffffff1673ffffffffffffffffffffffffffffffffffffffff16815260200190815260200160002060008973ffffffffffffffffffffffffffffffffffffffff1673ffffffffffffffffffffffffffffffffffffffff168152602001908152602001600020546105a09190611484565b6109cd565b600191505092915050565b80600590805190602001906105c6929190610eaf565b5050565b60008060008373ffffffffffffffffffffffffffffffffffffffff1673ffffffffffffffffffffffffffffffffffffffff168152602001908152602001600020549050919050565b606060048054610621906113f9565b80601f016020809104026020016040519081016040528092919081815260200182805461064d906113f9565b801561069a5780601f1061066f5761010080835404028352916020019161069a565b820191906000526020600020905b81548152906001019060200180831161067d57829003601f168201915b5050505050905090565b6000806106af6109c5565b90506000600160008373ffffffffffffffffffffffffffffffffffffffff1673ffffffffffffffffffffffffffffffffffffffff16815260200190815260200160002060008673ffffffffffffffffffffffffffffffffffffffff1673ffffffffffffffffffffffffffffffffffffffff16815260200190815260200160002054905083811015610775576040517f08c379a000000000000000000000000000000000000000000000000000000000815260040161076c9061154c565b60405180910390fd5b61078282868684036109cd565b60019250505092915050565b6000600654905090565b6000806107a36109c5565b90506107b0818585610c24565b600191505092915050565b60606040518060400160405280600b81526020017f48656c6c6f20576f726c64000000000000000000000000000000000000000000815250905090565b60016006600082825461080b9190611484565b92505081905550565b6000600160008473ffffffffffffffffffffffffffffffffffffffff1673ffffffffffffffffffffffffffffffffffffffff16815260200190815260200160002060008373ffffffffffffffffffffffffffffffffffffffff1673ffffffffffffffffffffffffffffffffffffffff16815260200190815260200160002054905092915050565b6060600580546108aa906113f9565b80601f01602080910402602001604051908101604052809291908181526020018280546108d6906113f9565b80156109235780601f106108f857610100808354040283529160200191610923565b820191906000526020600020905b81548152906001019060200180831161090657829003601f168201915b5050505050905090565b6005805461093a906113f9565b80601f0160208091040260200160405190810160405280929190818152602001828054610966906113f9565b80156109b35780601f10610988576101008083540402835291602001916109b3565b820191906000526020600020905b81548152906001019060200180831161099657829003601f168201915b505050505081565b6060819050919050565b600033905090565b600073ffffffffffffffffffffffffffffffffffffffff168373ffffffffffffffffffffffffffffffffffffffff161415610a3d576040517f08c379a0000000000000000000000000000000000000000000000000000000008152600401610a34906115de565b60405180910390fd5b600073ffffffffffffffffffffffffffffffffffffffff168273ffffffffffffffffffffffffffffffffffffffff161415610aad576040517f08c379a0000000000000000000000000000000000000000000000000000000008152600401610aa490611670565b60405180910390fd5b80600160008573ffffffffffffffffffffffffffffffffffffffff1673ffffffffffffffffffffffffffffffffffffffff16815260200190815260200160002060008473ffffffffffffffffffffffffffffffffffffffff1673ffffffffffffffffffffffffffffffffffffffff168152602001908152602001600020819055508173ffffffffffffffffffffffffffffffffffffffff168373ffffffffffffffffffffffffffffffffffffffff167f8c5be1e5ebec7d5bd14f71427d1e84f3dd0314c0f7b2291e5b200ac8c7c3b92583604051610b8b9190610f6b565b60405180910390a3505050565b6000610ba48484610814565b90507fffffffffffffffffffffffffffffffffffffffffffffffffffffffffffffffff8114610c1e5781811015610c10576040517f08c379a0000000000000000000000000000000000000000000000000000000008152600401610c07906116dc565b60405180910390fd5b610c1d84848484036109cd565b5b50505050565b600073ffffffffffffffffffffffffffffffffffffffff168373ffffffffffffffffffffffffffffffffffffffff161415610c94576040517f08c379a0000000000000000000000000000000000000000000000000000000008152600401610c8b9061176e565b60405180910390fd5b600073ffffffffffffffffffffffffffffffffffffffff168273ffffffffffffffffffffffffffffffffffffffff161415610d04576040517f08c379a0000000000000000000000000000000000000000000000000000000008152600401610cfb90611800565b60405180910390fd5b610d0f838383610ea5565b60008060008573ffffffffffffffffffffffffffffffffffffffff1673ffffffffffffffffffffffffffffffffffffffff16815260200190815260200160002054905081811015610d95576040517f08c379a0000000000000000000000000000000000000000000000000000000008152600401610d8c90611892565b60405180910390fd5b8181036000808673ffffffffffffffffffffffffffffffffffffffff1673ffffffffffffffffffffffffffffffffffffffff16815260200190815260200160002081905550816000808573ffffffffffffffffffffffffffffffffffffffff1673ffffffffffffffffffffffffffffffffffffffff1681526020019081526020016000206000828254610e289190611484565b925050819055508273ffffffffffffffffffffffffffffffffffffffff168473ffffffffffffffffffffffffffffffffffffffff167fddf252ad1be2c89b69c2b068fc378daa952ba7f163c4a11628f55a4df523b3ef84604051610e8c9190610f6b565b60405180910390a3610e9f848484610eaa565b50505050565b505050565b505050565b828054610ebb906113f9565b90600052602060002090601f016020900481019282610edd5760008555610f24565b82601f10610ef657805160ff1916838001178555610f24565b82800160010185558215610f24579182015b82811115610f23578251825591602001919060010190610f08565b5b509050610f319190610f35565b5090565b5b80821115610f4e576000816000905550600101610f36565b5090565b6000819050919050565b610f6581610f52565b82525050565b6000602082019050610f806000830184610f5c565b92915050565b600081519050919050565b600082825260208201905092915050565b60005b83811015610fc0578082015181840152602081019050610fa5565b83811115610fcf576000848401525b50505050565b6000601f19601f8301169050919050565b6000610ff182610f86565b610ffb8185610f91565b935061100b818560208601610fa2565b61101481610fd5565b840191505092915050565b600060208201905081810360008301526110398184610fe6565b905092915050565b6000604051905090565b600080fd5b600080fd5b600073ffffffffffffffffffffffffffffffffffffffff82169050919050565b600061108082611055565b9050919050565b61109081611075565b811461109b57600080fd5b50565b6000813590506110ad81611087565b92915050565b6110bc81610f52565b81146110c757600080fd5b50565b6000813590506110d9816110b3565b92915050565b600080604083850312156110f6576110f561104b565b5b60006111048582860161109e565b9250506020611115858286016110ca565b9150509250929050565b60008115159050919050565b6111348161111f565b82525050565b600060208201905061114f600083018461112b565b92915050565b60008060006060848603121561116e5761116d61104b565b5b600061117c8682870161109e565b935050602061118d8682870161109e565b925050604061119e868287016110ca565b9150509250925092565b600060ff82169050919050565b6111be816111a8565b82525050565b60006020820190506111d960008301846111b5565b92915050565b600080fd5b600080fd5b7f4e487b7100000000000000000000000000000000000000000000000000000000600052604160045260246000fd5b61122182610fd5565b810181811067ffffffffffffffff821117156112405761123f6111e9565b5b80604052505050565b6000611253611041565b905061125f8282611218565b919050565b600067ffffffffffffffff82111561127f5761127e6111e9565b5b61128882610fd5565b9050602081019050919050565b82818337600083830152505050565b60006112b76112b284611264565b611249565b9050828152602081018484840111156112d3576112d26111e4565b5b6112de848285611295565b509392505050565b600082601f8301126112fb576112fa6111df565b5b813561130b8482602086016112a4565b91505092915050565b60006020828403121561132a5761132961104b565b5b600082013567ffffffffffffffff81111561134857611347611050565b5b611354848285016112e6565b91505092915050565b6000602082840312156113735761137261104b565b5b60006113818482850161109e565b91505092915050565b600080604083850312156113a1576113a061104b565b5b60006113af8582860161109e565b92505060206113c08582860161109e565b9150509250929050565b7f4e487b7100000000000000000000000000000000000000000000000000000000600052602260045260246000fd5b6000600282049050600182168061141157607f821691505b60208210811415611425576114246113ca565b5b50919050565b7f4e487b7100000000000000000000000000000000000000000000000000000000600052601160045260246000fd5b600061146582610f52565b915060008214156114795761147861142b565b5b600182039050919050565b600061148f82610f52565b915061149a83610f52565b9250827fffffffffffffffffffffffffffffffffffffffffffffffffffffffffffffffff038211156114cf576114ce61142b565b5b828201905092915050565b7f45524332303a2064656372656173656420616c6c6f77616e63652062656c6f7760008201527f207a65726f000000000000000000000000000000000000000000000000000000602082015250565b6000611536602583610f91565b9150611541826114da565b604082019050919050565b6000602082019050818103600083015261156581611529565b9050919050565b7f45524332303a20617070726f76652066726f6d20746865207a65726f2061646460008201527f7265737300000000000000000000000000000000000000000000000000000000602082015250565b60006115c8602483610f91565b91506115d38261156c565b604082019050919050565b600060208201905081810360008301526115f7816115bb565b9050919050565b7f45524332303a20617070726f766520746f20746865207a65726f20616464726560008201527f7373000000000000000000000000000000000000000000000000000000000000602082015250565b600061165a602283610f91565b9150611665826115fe565b604082019050919050565b600060208201905081810360008301526116898161164d565b9050919050565b7f45524332303a20696e73756666696369656e7420616c6c6f77616e6365000000600082015250565b60006116c6601d83610f91565b91506116d182611690565b602082019050919050565b600060208201905081810360008301526116f5816116b9565b9050919050565b7f45524332303a207472616e736665722066726f6d20746865207a65726f20616460008201527f6472657373000000000000000000000000000000000000000000000000000000602082015250565b6000611758602583610f91565b9150611763826116fc565b604082019050919050565b600060208201905081810360008301526117878161174b565b9050919050565b7f45524332303a207472616e7366657220746f20746865207a65726f206164647260008201527f6573730000000000000000000000000000000000000000000000000000000000602082015250565b60006117ea602383610f91565b91506117f58261178e565b604082019050919050565b60006020820190508181036000830152611819816117dd565b9050919050565b7f45524332303a207472616e7366657220616d6f756e742065786365656473206260008201527f616c616e63650000000000000000000000000000000000000000000000000000602082015250565b600061187c602683610f91565b915061188782611820565b604082019050919050565b600060208201905081810360008301526118ab8161186f565b905091905056fea2646970667358221220dbb226f49bf68263ff98a54118f5ef8f588e6b52248e813b48ad6c1c7075e1a564736f6c634300080b0033",
  "immutableReferences": {},
  "source": "pragma solidity >=0.4.0 <0.9.0;\n// pragma solidity 0.4.0;\nimport \"@openzeppelin/contracts/token/ERC20/ERC20.sol\";\n\n\ncontract ERC20Coin is ERC20 {\n    string public setMessage = \"Hello Solidity\";\n    constructor() ERC20(\"Scaffold ETH Token\", \"SET\") {\n        _mint(msg.sender, 55555 * 10 ** 18); //1000000000000000000000n\n        // _mint(msg.sender, 5555 * 1 ** 1);\n    }\n\n   uint256 public count = 0;\n    function Hello() public pure returns (string memory) {\n        return \"Hello World\";\n    }\n    function Greet(string memory str) public pure returns (string memory) {\n        return str;\n    }\n    function setText(string memory _setText) public {\n        setMessage = _setText;\n    }\n    function getText() public view returns(string memory) {\n        return(setMessage);\n    }\n       // Function that increments our counter\n    function increment() public {\n        count += 1;\n    }\n\n    // Not necessary getter to get the count value\n    function getCount() public view returns (uint256) {\n        return count;\n    }\n     // Function that increments our counter\n    function decrement() public {\n        count--;\n    }\n}",
  "sourcePath": "/Users/pinkyjain/Downloads/BLOCKCHAIN/golang-gin-web3/contracts/ERC20Coin.sol",
  "compiler": {
    "name": "solc",
    "version": "0.8.11+commit.d7f03943.Emscripten.clang"
  },
  "schemaVersion": "3.4.5",
  "updatedAt": "2022-03-06T02:27:22.251Z",
  "networkType": "ethereum",
  "devdoc": {
    "kind": "dev",
    "methods": {
      "allowance(address,address)": {
        "details": "See {IERC20-allowance}."
      },
      "approve(address,uint256)": {
        "details": "See {IERC20-approve}. NOTE: If `amount` is the maximum `uint256`, the allowance is not updated on `transferFrom`. This is semantically equivalent to an infinite approval. Requirements: - `spender` cannot be the zero address."
      },
      "balanceOf(address)": {
        "details": "See {IERC20-balanceOf}."
      },
      "decimals()": {
        "details": "Returns the number of decimals used to get its user representation. For example, if `decimals` equals `2`, a balance of `505` tokens should be displayed to a user as `5.05` (`505 / 10 ** 2`). Tokens usually opt for a value of 18, imitating the relationship between Ether and Wei. This is the value {ERC20} uses, unless this function is overridden; NOTE: This information is only used for _display_ purposes: it in no way affects any of the arithmetic of the contract, including {IERC20-balanceOf} and {IERC20-transfer}."
      },
      "decreaseAllowance(address,uint256)": {
        "details": "Atomically decreases the allowance granted to `spender` by the caller. This is an alternative to {approve} that can be used as a mitigation for problems described in {IERC20-approve}. Emits an {Approval} event indicating the updated allowance. Requirements: - `spender` cannot be the zero address. - `spender` must have allowance for the caller of at least `subtractedValue`."
      },
      "increaseAllowance(address,uint256)": {
        "details": "Atomically increases the allowance granted to `spender` by the caller. This is an alternative to {approve} that can be used as a mitigation for problems described in {IERC20-approve}. Emits an {Approval} event indicating the updated allowance. Requirements: - `spender` cannot be the zero address."
      },
      "name()": {
        "details": "Returns the name of the token."
      },
      "symbol()": {
        "details": "Returns the symbol of the token, usually a shorter version of the name."
      },
      "totalSupply()": {
        "details": "See {IERC20-totalSupply}."
      },
      "transfer(address,uint256)": {
        "details": "See {IERC20-transfer}. Requirements: - `to` cannot be the zero address. - the caller must have a balance of at least `amount`."
      },
      "transferFrom(address,address,uint256)": {
        "details": "See {IERC20-transferFrom}. Emits an {Approval} event indicating the updated allowance. This is not required by the EIP. See the note at the beginning of {ERC20}. NOTE: Does not update the allowance if the current allowance is the maximum `uint256`. Requirements: - `from` and `to` cannot be the zero address. - `from` must have a balance of at least `amount`. - the caller must have allowance for ``from``'s tokens of at least `amount`."
      }
    },
    "version": 1
  },
  "userdoc": {
    "kind": "user",
    "methods": {},
    "version": 1
  }
}